{
  "_format": "hh-sol-artifact-1",
  "contractName": "HealthVault",
  "sourceName": "contracts/HealthVault.sol",
  "abi": [
    {
      "anonymous": false,
      "inputs": [
        {
          "indexed": true,
          "internalType": "string",
          "name": "patientId",
          "type": "string"
        },
        {
          "indexed": false,
          "internalType": "string",
          "name": "fileHash",
          "type": "string"
        },
        {
          "indexed": false,
          "internalType": "uint256",
          "name": "timestamp",
          "type": "uint256"
        },
        {
          "indexed": false,
          "internalType": "address",
          "name": "uploader",
          "type": "address"
        }
      ],
      "name": "RecordAdded",
      "type": "event"
    },
    {
      "inputs": [
        {
          "internalType": "string",
          "name": "_patientId",
          "type": "string"
        },
        {
          "internalType": "string",
          "name": "_fileHash",
          "type": "string"
        },
        {
          "internalType": "string",
          "name": "_metadataHash",
          "type": "string"
        }
      ],
      "name": "addRecord",
      "outputs": [],
      "stateMutability": "nonpayable",
      "type": "function"
    },
    {
      "inputs": [
        {
          "internalType": "string",
          "name": "_patientId",
          "type": "string"
        }
      ],
      "name": "getRecords",
      "outputs": [
        {
          "components": [
            {
              "internalType": "string",
              "name": "fileHash",
              "type": "string"
            },
            {
              "internalType": "string",
              "name": "metadataHash",
              "type": "string"
            },
            {
              "internalType": "uint256",
              "name": "timestamp",
              "type": "uint256"
            },
            {
              "internalType": "address",
              "name": "uploader",
              "type": "address"
            }
          ],
          "internalType": "struct HealthVault.Record[]",
          "name": "",
          "type": "tuple[]"
        }
      ],
      "stateMutability": "view",
      "type": "function"
    }
  ],
  "bytecode": "0x608060405234801561001057600080fd5b50610c5f806100206000396000f3fe608060405234801561001057600080fd5b50600436106100365760003560e01c80633f723c621461003b57806386e80b7114610057575b600080fd5b6100556004803603810190610050919061053b565b610087565b005b610071600480360381019061006c91906105e2565b6101e0565b60405161007e9190610830565b60405180910390f35b600060405180608001604052808481526020018381526020014281526020013373ffffffffffffffffffffffffffffffffffffffff1681525090506000846040516100d2919061088e565b9081526020016040518091039020819080600181540180825580915050600190039060005260206000209060040201600090919091909150600082015181600001908161011f9190610ab1565b5060208201518160010190816101359190610ab1565b506040820151816002015560608201518160030160006101000a81548173ffffffffffffffffffffffffffffffffffffffff021916908373ffffffffffffffffffffffffffffffffffffffff160217905550505083604051610197919061088e565b60405180910390207fde51c2f11e5f325424ebc2a7dfa80ef933b388745c5e4ff3c7188287afaeb9818442336040516101d293929190610beb565b60405180910390a250505050565b60606000826040516101f2919061088e565b9081526020016040518091039020805480602002602001604051908101604052809291908181526020016000905b828210156103d65783829060005260206000209060040201604051806080016040529081600082018054610253906108d4565b80601f016020809104026020016040519081016040528092919081815260200182805461027f906108d4565b80156102cc5780601f106102a1576101008083540402835291602001916102cc565b820191906000526020600020905b8154815290600101906020018083116102af57829003601f168201915b505050505081526020016001820180546102e5906108d4565b80601f0160208091040260200160405190810160405280929190818152602001828054610311906108d4565b801561035e5780601f106103335761010080835404028352916020019161035e565b820191906000526020600020905b81548152906001019060200180831161034157829003601f168201915b50505050508152602001600282015481526020016003820160009054906101000a900473ffffffffffffffffffffffffffffffffffffffff1673ffffffffffffffffffffffffffffffffffffffff1673ffffffffffffffffffffffffffffffffffffffff168152505081526020019060010190610220565b505050509050919050565b6000604051905090565b600080fd5b600080fd5b600080fd5b600080fd5b6000601f19601f8301169050919050565b7f4e487b7100000000000000000000000000000000000000000000000000000000600052604160045260246000fd5b610448826103ff565b810181811067ffffffffffffffff8211171561046757610466610410565b5b80604052505050565b600061047a6103e1565b9050610486828261043f565b919050565b600067ffffffffffffffff8211156104a6576104a5610410565b5b6104af826103ff565b9050602081019050919050565b82818337600083830152505050565b60006104de6104d98461048b565b610470565b9050828152602081018484840111156104fa576104f96103fa565b5b6105058482856104bc565b509392505050565b600082601f830112610522576105216103f5565b5b81356105328482602086016104cb565b91505092915050565b600080600060608486031215610554576105536103eb565b5b600084013567ffffffffffffffff811115610572576105716103f0565b5b61057e8682870161050d565b935050602084013567ffffffffffffffff81111561059f5761059e6103f0565b5b6105ab8682870161050d565b925050604084013567ffffffffffffffff8111156105cc576105cb6103f0565b5b6105d88682870161050d565b9150509250925092565b6000602082840312156105f8576105f76103eb565b5b600082013567ffffffffffffffff811115610616576106156103f0565b5b6106228482850161050d565b91505092915050565b600081519050919050565b600082825260208201905092915050565b6000819050602082019050919050565b600081519050919050565b600082825260208201905092915050565b60005b83811015610691578082015181840152602081019050610676565b60008484015250505050565b60006106a882610657565b6106b28185610662565b93506106c2818560208601610673565b6106cb816103ff565b840191505092915050565b6000819050919050565b6106e9816106d6565b82525050565b600073ffffffffffffffffffffffffffffffffffffffff82169050919050565b600061071a826106ef565b9050919050565b61072a8161070f565b82525050565b6000608083016000830151848203600086015261074d828261069d565b91505060208301518482036020860152610767828261069d565b915050604083015161077c60408601826106e0565b50606083015161078f6060860182610721565b508091505092915050565b60006107a68383610730565b905092915050565b6000602082019050919050565b60006107c68261062b565b6107d08185610636565b9350836020820285016107e285610647565b8060005b8581101561081e57848403895281516107ff858261079a565b945061080a836107ae565b925060208a019950506001810190506107e6565b50829750879550505050505092915050565b6000602082019050818103600083015261084a81846107bb565b905092915050565b600081905092915050565b600061086882610657565b6108728185610852565b9350610882818560208601610673565b80840191505092915050565b600061089a828461085d565b915081905092915050565b7f4e487b7100000000000000000000000000000000000000000000000000000000600052602260045260246000fd5b600060028204905060018216806108ec57607f821691505b6020821081036108ff576108fe6108a5565b5b50919050565b60008190508160005260206000209050919050565b60006020601f8301049050919050565b600082821b905092915050565b6000600883026109677fffffffffffffffffffffffffffffffffffffffffffffffffffffffffffffffff8261092a565b610971868361092a565b95508019841693508086168417925050509392505050565b6000819050919050565b60006109ae6109a96109a4846106d6565b610989565b6106d6565b9050919050565b6000819050919050565b6109c883610993565b6109dc6109d4826109b5565b848454610937565b825550505050565b600090565b6109f16109e4565b6109fc8184846109bf565b505050565b5b81811015610a2057610a156000826109e9565b600181019050610a02565b5050565b601f821115610a6557610a3681610905565b610a3f8461091a565b81016020851015610a4e578190505b610a62610a5a8561091a565b830182610a01565b50505b505050565b600082821c905092915050565b6000610a8860001984600802610a6a565b1980831691505092915050565b6000610aa18383610a77565b9150826002028217905092915050565b610aba82610657565b67ffffffffffffffff811115610ad357610ad2610410565b5b610add82546108d4565b610ae8828285610a24565b600060209050601f831160018114610b1b5760008415610b09578287015190505b610b138582610a95565b865550610b7b565b601f198416610b2986610905565b60005b82811015610b5157848901518255600182019150602085019450602081019050610b2c565b86831015610b6e5784890151610b6a601f891682610a77565b8355505b6001600288020188555050505b505050505050565b600082825260208201905092915050565b6000610b9f82610657565b610ba98185610b83565b9350610bb9818560208601610673565b610bc2816103ff565b840191505092915050565b610bd6816106d6565b82525050565b610be58161070f565b82525050565b60006060820190508181036000830152610c058186610b94565b9050610c146020830185610bcd565b610c216040830184610bdc565b94935050505056fea2646970667358221220055ec4deb03718684d3057cf85e96e85270edfd7d256c210e05737021034464764736f6c63430008180033",
  "linkReferences": {},
  "deployedLinkReferences": {}
}